:100000000C9462000C948A000C948A000C948A0070
:100010000C9459010C948A000C948A000C948A0068
:100020000C948A000C948A000C948A000C948A0028
:100030000C948A000C94C8010C948A000C948A00D9
:100040000C94C3060C948A000C948A000C948A00C9
:100050000C948A000C948A000C948A000C948A00F8
:100060000C948A000C948A00000000080002010031
:100070000003040700000000000000000102040863
:100080001020408001020408102001020408102002
:10009000040404040404040402020202020203032E
:1000A00003030303000000002300260029000000D2
:1000B0000000250028002B0000000000240027007D
:1000C0002A00700311241FBECFEFD8E0DEBFCDBFE2
:1000D00011E0A0E0B1E0ECEEF1E102C005900D927C
:1000E000A030B107D9F721E0A0E0B1E001C01D9236
:1000F000A63EB207E1F710E0C2E6D0E004C02197C7
:10010000FE010E94EE08C136D107C9F70E94B4066D
:100110000C94F4080C940000CF93DF93EC012C8531
:100120003D852F5F3F4F3D872C87E881F981E2179E
:10013000F30704F56A817B81621773077CF4EC8115
:10014000FD81E217F30754F46E817F816217730714
:100150002CF4E885F985E217F30764F06E1B7F0B3A
:100160008FEF90E00E94C6082E1B3F0B629F602D10
:10017000112401C060E070E08E850E94A9072C85E3
:100180003D858A859B858217930714F41D861C86FE
:10019000DF91CF9108958F929F92AF92BF92CF92AD
:1001A000DF92EF92FF920F931F93CF93DF93EC01B7
:1001B000CA84DB848FEFC81AD80ADB86CA86088116
:1001C00019810C151D050CF059C06A817B816C15D5
:1001D0007D0514F1601B710B072E000C880B990B29
:1001E0000E94BA059B01AC016C857D858E859F853B
:1001F0000E9417054B015C01B601601B710B072EB5
:10020000000C880B990B0E94BA059B01AC01C5013B
:10021000B4010E9446062FC00C811D810C151D05DE
:100220002CF06C857D858E859F8525C0EE80FF80B6
:10023000EC14FD041CF1B6016E197F09072E000CA9
:10024000880B990B0E94BA052C853D854E855F85EC
:100250000E9446064B015C01B8016E197F09072E0A
:10026000000C880B990B0E94BA059B01AC01C501DB
:10027000B4010E9417050E94890501C060E070E08A
:1002800088890E94A9072A853B85888599858217D8
:10029000930714F41B861A86DF91CF911F910F915B
:1002A000FF90EF90DF90CF90BF90AF909F908F9096
:1002B00008951F920F920FB60F9211242F933F9320
:1002C0004F935F936F937F938F939F93AF93BF935E
:1002D000EF93FF9364EF71E080E090E00E943207BB
:1002E0008EE00E949C080197A1F41092DA0110920E
:1002F000D9018091DC018F5F8A3018F48093DC0192
:1003000002C01092DC018EE00E949C08892BD9F774
:100310002EC080E10E949C088130910551F4909399
:10032000DA018093D90180E10E949C08892BD9F7DA
:100330001EC08FE00E949C08019749F481E08093E1
:10034000DB018FE00E949C08892BD9F710C081E166
:100350000E949C08019759F41092DB0160E08BE049
:100360000E946D0881E10E949C08892BD9F7FF91BA
:10037000EF91BF91AF919F918F917F916F915F911D
:100380004F913F912F910F900FBE0F901F90189596
:100390001F920F920FB60F9211242F933F934F93FA
:1003A0005F936F937F938F939F93AF93BF93EF93DD
:1003B000FF9380EE91EB9093850080938400809171
:1003C000D7019091D80101969093D8018093D701DD
:1003D000893E9340A0F08091D9019091DA01019774
:1003E00071F48091DC018F5F8A3018F48093DC0116
:1003F00002C01092DC011092D8011092D7018091B6
:10040000DC01863061F488EC91E00E948C0089EB7D
:1004100091E00E948C008AEA91E00E948C00809119
:10042000DC01873061F489E991E00E94CB0088E823
:1004300091E00E94CB0087E791E00E94CB00809181
:10044000DC01883061F486E691E00E94CB0085E50E
:1004500091E00E94CB0084E491E00E94CB00809167
:10046000DC01893061F483E391E00E94CB0082E2F9
:1004700091E00E94CB0061E083E00E946D088091D2
:10048000DB01813021F480E091E00E94CB00FF91FC
:10049000EF91BF91AF919F918F917F916F915F91FC
:1004A0004F913F912F910F900FBE0F901F90189575
:1004B00061E085E00E94310861E086E00E94310839
:1004C00061E083E00E94310861E08BE00E94310826
:1004D00060E08EE00E94310860E08FE00E94310809
:1004E00060E080E10E94310860E081E10E94310813
:1004F0001BBA82E0809368009FE090936C0010929A
:1005000080008093810081E080936F0060E085E04F
:100510000E946D0860E086E00E946D0860E083E064
:100520000E946D0860E08BE00C946D088091DC0106
:10053000823009F450C028F4882361F08130B1F092
:100540000895843009F497C008F47AC0853009F41E
:10055000A7C0089561E083E00E946D0861E085E036
:100560000E946D0861E086E00C946D0861E085E012
:100570000E946D0864EF71E080E090E00E94320715
:1005800061E086E00E946D0864EF71E080E090E039
:100590000E94320761E083E00E946D0864EF71E021
:1005A00080E090E00E94320760E085E00E946D08E4
:1005B00064EF71E080E090E00E94320760E086E046
:1005C0000E946D0864EF71E080E090E00E943207C5
:1005D00060E083E07DC061E085E00E946D0868EC2A
:1005E00070E080E090E00E94320761E086E00E94C7
:1005F0006D0868EC70E080E090E00E94320761E0F6
:1006000083E00E946D0868EC70E080E090E00E945A
:10061000320760E085E00E946D0868EC70E080E0E1
:1006200090E00E94320760E086E00E946D0868EC6E
:1006300070E080E090E00E94320760E083E014C048
:1006400061E085E00E946D0861E086E00E946D082F
:1006500061E083E00E946D0868EC70E080E090E06B
:100660000E94320760E085E00E946D0868EC70E04F
:1006700080E090E033C061E085E00E946D0861E0B9
:1006800086E00E946D0861E083E00E946D0868ECDE
:1006900070E080E090E00E94320760E086E0E4CF06
:1006A00061E083E00E946D0861E085E00E946D08D2
:1006B00061E086E00E946D0864EF71E080E090E008
:1006C0000E94320760E085E00E946D0860E086E0ED
:1006D0000E946D0864EF71E080E090E00C943207B6
:1006E0002F923F924F925F926F927F928F929F9242
:1006F000AF92BF92CF92DF92EF92FF920F931F9330
:10070000CF93DF93C8ECD1E01D861C8685E08E87F1
:1007100061E00E9431081982188284E190E09B8395
:100720008A8308E210E01D830C8382E3A82EB12C9B
:10073000BF82AE829AE5C92ED12CD986C88622E81E
:10074000E22EF12CFB86EA861D861C86C9EBD1E0E1
:100750001D861C8696E09E8761E086E00E94310837
:100760008AE090E0998388838EE190E09B838A837E
:10077000BD82AC823CE3632E712C7F826E8244E6A4
:10078000A42EB12CB986A886FB86EA861D861C8617
:10079000CAEAD1E01D861C8683E08E8761E00E9454
:1007A000310879826882DB82CA8258E7852E912CD3
:1007B0009D828C829F828E8299868886FB86EA86BD
:1007C0001D861C86C9E9D1E01B861A8695E0988BA8
:1007D00061E085E00E943108C12CD12C6FE7E62E44
:1007E00063E4F62ECC86DD86EE86FF8619821882BB
:1007F0001B830A831D830C8370E5272E312C3F82D7
:100800002E82E0EF4E2E512C598648861B861A8682
:10081000C8E8D1E01B861A8686E0888B61E00E94DA
:100820003108CC86DD86EE86FF86398228829B825F
:100830008A829D828C8280EA90E09F838E83598693
:1008400048861B861A86C7E7D1E01B861A8693E086
:10085000988B61E083E00E943108CC86DD86EE86CD
:10086000FF8680EA90E09983888388EC90E09B8300
:100870008A839D838C835F824E82598648861B863D
:100880001A86C6E6D1E01B861A8695E0988B61E051
:1008900085E00E943108CC86DD86EE86FF861982CF
:1008A00018821B830A837D826C82BF82AE8284EBB6
:1008B00090E0998788871B861A86C5E5D1E01B865C
:1008C0001A8696E0988B61E086E00E943108CC861B
:1008D000DD86EE86FF86198308833B822A82BD82ED
:1008E000AC82FCE84F2E512C5F824E8284EB90E06C
:1008F000998788871B861A86C4E4D1E01B861A86EE
:1009000093E0988B61E083E00E943108CC86DD861D
:10091000EE86FF86398228829B828A825D824C82A3
:1009200084EB90E09F838E83998788871B861A8645
:10093000C3E3D1E01B861A8695E0988B61E085E0E1
:100940000E943108CC86DD86EE86FF8619821882E9
:100950001B830A837D826C82BF82AE825986488661
:100960001B861A86C2E2D1E01B861A8686E0888B37
:1009700061E00E943108CC86DD86EE86FF86198212
:1009800018821B830A837D826C82BF82AE82598665
:1009900048861B861A86C1E1D1E01B861A8693E041
:1009A000988B61E083E00E943108CC86DD86EE867C
:1009B000FF86198218821B830A837D826C82BF8224
:1009C000AE82598648861B861A86C0E0D1E01B8617
:1009D0001A868BE0888B61E00E943108CC86DD8628
:1009E000EE86FF8619821882BB82AA8288EC90E08C
:1009F0009D838C838CE291E09F838E8380E991E0DC
:100A0000998788871B861A86DF91CF911F910F9156
:100A1000FF90EF90DF90CF90BF90AF909F908F901E
:100A20007F906F905F904F903F902F9008950E941D
:100A30002B050C940C060E94050658F00E94FE053A
:100A400040F029F45F3F29F00C94F50551110C9406
:100A500040060C94FB050E941D0668F39923B1F330
:100A6000552391F3951B550BBB27AA2762177307D4
:100A7000840738F09F5F5F4F220F331F441FAA1F68
:100A8000A9F335D00E2E3AF0E0E832D09150504024
:100A9000E695001CCAF72BD0FE2F29D0660F771FD2
:100AA000881FBB1F261737074807AB07B0E809F0B8
:100AB000BB0B802DBF01FF2793585F4F3AF09E3F3D
:100AC000510578F00C94F5050C9440065F3FE4F373
:100AD000983ED4F3869577956795B795F7959F5F80
:100AE000C9F7880F911D9695879597F90895E1E0CC
:100AF000660F771F881FBB1F621773078407BA072B
:100B000020F0621B730B840BBA0BEE1F88F7E09585
:100B100008950E94250688F09F5798F0B92F9927CD
:100B2000B751B0F0E1F0660F771F881F991F1AF0D8
:100B3000BA95C9F714C0B13091F00E943F06B1E0F8
:100B400008950C943F06672F782F8827B85F39F0F7
:100B5000B93FCCF3869577956795B395D9F73EF471
:100B600090958095709561957F4F8F4F9F4F089519
:100B7000E89409C097FB3EF4909580957095619537
:100B80007F4F8F4F9F4F9923A9F0F92F96E9BB27ED
:100B90009395F695879577956795B795F111F8CF69
:100BA000FAF4BB0F11F460FF1BC06F5F7F4F8F4FD4
:100BB0009F4F16C0882311F096E911C0772321F0CA
:100BC0009EE8872F762F05C0662371F096E8862F62
:100BD00070E060E02AF09A95660F771F881FDAF7B9
:100BE000880F9695879597F9089597F99F6780E8FC
:100BF00070E060E008959FEF80EC089500240A946F
:100C00001616170618060906089500240A941216E7
:100C10001306140605060895092E0394000C11F41A
:100C2000882352F0BB0F40F4BF2B11F460FF04C0C7
:100C30006F5F7F4F8F4F9F4F089557FD9058440F20
:100C4000551F59F05F3F71F04795880F97FB991F2B
:100C500061F09F3F79F087950895121613061406E8
:100C6000551FF2CF4695F1DF08C016161706180675
:100C7000991FF1CF86957105610508940895E89450
:100C8000BB2766277727CB0197F908950E9459065D
:100C90000C940C060E94FE0538F00E94050620F018
:100CA000952311F00C94F5050C94FB0511240C947C
:100CB00040060E941D0670F3959FC1F3950F50E00A
:100CC000551F629FF001729FBB27F00DB11D639FFE
:100CD000AA27F00DB11DAA1F649F6627B00DA11DA4
:100CE000661F829F2227B00DA11D621F739FB00D4A
:100CF000A11D621F839FA00D611D221F749F3327BA
:100D0000A00D611D231F849F600D211D822F762F52
:100D10006A2F11249F5750409AF0F1F088234AF02F
:100D2000EE0FFF1FBB1F661F771F881F915050409B
:100D3000A9F79E3F510580F00C94F5050C944006F0
:100D40005F3FE4F3983ED4F3869577956795B79522
:100D5000F795E7959F5FC1F7FE2B880F911D96953C
:100D6000879597F9089508950E946E070E94B3062B
:100D70000E945802C0E0D0E00E9496022097E1F362
:100D80000E940000F9CF1F920F920FB60F9211240C
:100D90002F933F938F939F93AF93BF938091DE01E7
:100DA0009091DF01A091E001B091E1013091DD016E
:100DB00023E0230F2D3720F40196A11DB11D05C09E
:100DC00026E8230F0296A11DB11D2093DD0180931B
:100DD000DE019093DF01A093E001B093E1018091E7
:100DE000E2019091E301A091E401B091E501019647
:100DF000A11DB11D8093E2019093E301A093E40152
:100E0000B093E501BF91AF919F918F913F912F9149
:100E10000F900FBE0F901F9018953FB7F8948091D8
:100E2000E2019091E301A091E401B091E50126B5C2
:100E3000A89B05C02F3F19F00196A11DB11D3FBF12
:100E4000BA2FA92F982F8827820F911DA11DB11DA0
:100E5000BC01CD0142E0660F771F881F991F4A959C
:100E6000D1F708958F929F92AF92BF92CF92DF9267
:100E7000EF92FF926B017C010E940D074B015C0118
:100E8000C114D104E104F10401F10E94C5080E94DB
:100E90000D07DC01CB0188199909AA09BB09883E15
:100EA0009340A105B10560F321E0C21AD108E10821
:100EB000F10888EE880E83E0981EA11CB11CC114B5
:100EC000D104E104F10419F7DBCFFF90EF90DF903C
:100ED000CF90BF90AF909F908F900895789484B5F5
:100EE000826084BD84B5816084BD85B5826085BD26
:100EF00085B5816085BDEEE6F0E08081816080830C
:100F0000E1E8F0E0108280818260808380818160EE
:100F10008083E0E8F0E0808181608083E1EBF0E0B5
:100F2000808184608083E0EBF0E080818160808359
:100F3000EAE7F0E080818460808380818260808342
:100F40008081816080838081806880831092C1006D
:100F500008951F93CF93DF93182FEB0161E00E9458
:100F60003108209711F460E004C0CF3FD10539F477
:100F700061E0812FDF91CF911F910C946D08E12FDB
:100F8000F0E0E859FF4FE491E330F9F048F4E13044
:100F9000B9F0E230A1F584B5806284BDC8BD34C02B
:100FA000E730E9F0E83019F1E43049F5809180004C
:100FB000806280938000D0938B00C0938A0024C00D
:100FC00084B5806884BDC7BD1FC0809180008068E3
:100FD00080938000D0938900C093880015C08091D1
:100FE000B00080688093B000C093B3000DC08091C2
:100FF000B00080628093B000C093B40005C0C038D8
:10100000D1050CF0B5CFAFCFDF91CF911F910895EF
:10101000833081F028F4813099F08230A1F0089576
:101020008730A9F08830B9F08430D1F48091800005
:101030008F7D03C0809180008F778093800008951A
:1010400084B58F7702C084B58F7D84BD089580916B
:10105000B0008F7703C08091B0008F7D8093B00087
:101060000895CF93DF9390E0FC01E458FF4F249163
:10107000FC01E057FF4F8491882361F190E0880FD5
:10108000991FFC01E854FF4FC591D491FC01E25532
:10109000FF4FA591B491611109C09FB7F894888161
:1010A000209582238883EC912E230BC0623061F45B
:1010B0009FB7F8948881322F309583238883EC91F1
:1010C0002E2B2C939FBF06C08FB7F894E8812E2B50
:1010D00028838FBFDF91CF9108951F93CF93DF9324
:1010E000282F30E0F901E859FF4F8491F901E458C5
:1010F000FF4FD491F901E057FF4FC491CC23C1F0C9
:10110000162F81110E940808EC2FF0E0EE0FFF1F50
:10111000E255FF4FA591B4919FB7F894111104C007
:101120008C91D095D82302C0EC91DE2BDC939FBF2D
:10113000DF91CF911F910895CF93DF93282F30E057
:10114000F901E859FF4F8491F901E458FF4FD49118
:10115000F901E057FF4FC491CC2391F081110E9417
:101160000808EC2FF0E0EE0FFF1FEC55FF4FA591A4
:10117000B491EC91ED2381E090E021F480E002C095
:1011800080E090E0DF91CF910895089597FB072EBE
:1011900016F4009407D077FD09D00E94DA0807FC06
:1011A00005D03EF4909581959F4F08957095619577
:1011B0007F4F0895AA1BBB1B51E107C0AA1FBB1F8D
:1011C000A617B70710F0A61BB70B881F991F5A95D3
:1011D000A9F780959095BC01CD010895EE0FFF1FF2
:0C11E0000590F491E02D0994F894FFCFE5
:00000001FF
