S016000043617274656C4661726D616369612E737265639F
S11300000C9461000C9473000C9473000C947300B2
S11300100C9475000C9473000C9473000C9473008E
S11300200C9473000C9473000C9473000C94730080
S11300300C9473000C9473000C9473000C94730070
S11300400C94D0010C9473000C9473000C94730002
S11300500C9473000C9473000C9473000C94730050
S11300600C9473000C94730000000008000201005B
S1130070000304070000000000000000010204085F
S113008010204080010204081020010204081020FE
S1130090040404040404040402020202020203032A
S11300A003030303000000002300260029000000CE
S11300B00000250028002B00000000002400270079
S11300C02A0011241FBECFEFD8E0DEBFCDBF21E050
S11300D0A0E0B1E001C01D92AA30B207E1F70E948E
S11300E0C1010C9474030C9400001F920F920FB67C
S11300F00F9211242F933F934F935F936F937F93AA
S11301008F939F93AF93BF93EF93FF9364EF71E04B
S113011080E090E00E943F028EE00E944A03019733
S113012081F4809100018F5F843018F48093000182
S113013002C0109200018EE00E944A03892BD9F775
S11301402FC080E10E944A03019769F48091000165
S1130150815008F483E08093000180E10E944A0307
S1130160892BD9F71DC08FE00E944A03019751F4EF
S113017061E08BE00E941B038FE00E944A03892BFD
S1130180D9F70EC081E10E944A03019749F460E067
S11301908BE00E941B0381E10E944A03892BD9F75B
S11301A0FF91EF91BF91AF919F918F917F916F914B
S11301B05F914F913F912F910F900FBE0F901F9021
S11301C0189561E085E00E94DF0261E086E00E940C
S11301D0DF0261E083E00E94DF0261E08BE00E94C5
S11301E0DF0260E08EE00E94DF0260E08FE00E94A8
S11301F0DF0260E080E10E94DF0260E081E10E94B2
S1130200DF021BBA82E0809368008FE080936C0069
S113021060E085E00E941B0360E086E00E941B030F
S113022060E083E00E941B0360E08BE00C941B03FE
S1130230809100018130A1F038F0823009F445C08A
S1130240833009F47DC0089561E083E00E941B03BC
S113025061E085E00E941B0361E086E00C941B03CF
S113026061E085E00E941B0364EF71E080E090E0B0
S11302700E943F0261E086E00E941B0364EF71E08C
S113028080E090E00E943F0261E083E00E941B0353
S113029064EF71E080E090E00E943F0260E085E05E
S11302A00E941B0364EF71E080E090E00E943F0233
S11302B060E086E00E941B0364EF71E080E090E060
S11302C00E943F0260E083E053C061E085E00E9449
S11302D01B0368EC70E080E090E00E943F0261E064
S11302E086E00E941B0368EC70E080E090E00E94CE
S11302F03F0261E083E00E941B0368EC70E080E051
S113030090E00E943F0260E085E00E941B0368ECDD
S113031070E080E090E00E943F0260E086E00E948E
S11303201B0368EC70E080E090E00E943F0260E014
S113033083E00E941B0368EC70E080E090E01EC044
S113034061E083E00E941B0361E085E00E941B03DF
S113035061E086E00E941B0364EF71E080E090E0BE
S11303600E943F0260E085E00E941B0360E086E09B
S11303700E941B0364EF71E080E090E00C943F0264
S113038008950E947B020E94C0010E94E100C0E027
S1130390D0E00E9418012097E1F30E940000F9CFF9
S11303A01F920F920FB60F9211242F933F938F93A6
S11303B09F93AF93BF938091020190910301A09109
S11303C00401B09105013091010123E0230F2D3781
S11303D020F40196A11DB11D05C026E8230F029645
S11303E0A11DB11D2093010180930201909303018B
S11303F0A0930401B0930501809106019091070137
S1130400A0910801B09109010196A11DB11D80932D
S1130410060190930701A0930801B0930901BF91CD
S1130420AF919F918F913F912F910F900FBE0F909D
S11304301F9018953FB7F894809106019091070199
S1130440A0910801B091090126B5A89B05C02F3FD2
S113045019F00196A11DB11D3FBFBA2FA92F982FE6
S11304608827820F911DA11DB11DBC01CD0142E061
S1130470660F771F881F991F4A95D1F708958F92A9
S11304809F92AF92BF92CF92DF92EF92FF926B0155
S11304907C010E941A024B015C01C114D104E104E5
S11304A0F10401F10E9473030E941A02DC01CB01E2
S11304B088199909AA09BB09883E9340A105B10589
S11304C060F321E0C21AD108E108F10888EE880E31
S11304D083E0981EA11CB11CC114D104E104F104F1
S11304E019F7DBCFFF90EF90DF90CF90BF90AF90E4
S11304F09F908F900895789484B5826084BD84B56C
S1130500816084BD85B5826085BD85B5816085BD0A
S1130510EEE6F0E0808181608083E1E8F0E0108223
S1130520808182608083808181608083E0E8F0E064
S1130530808181608083E1EBF0E08081846080834E
S1130540E0EBF0E0808181608083EAE7F0E0808185
S113055084608083808182608083808181608083E5
S11305608081806880831092C1000895833081F077
S113057028F4813099F08230A1F008958730A9F0F1
S11305808830B9F08430D1F4809180008F7D03C02D
S1130590809180008F7780938000089584B58F7751
S11305A002C084B58F7D84BD08958091B0008F779B
S11305B003C08091B0008F7D8093B0000895CF93E5
S11305C0DF9390E0FC01E458FF4F2491FC01E057D5
S11305D0FF4F8491882361F190E0880F991FFC01FB
S11305E0E854FF4FC591D491FC01E255FF4FA5910A
S11305F0B491611109C09FB7F89488812095822332
S11306008883EC912E230BC0623061F49FB7F89479
S11306108881322F309583238883EC912E2B2C9361
S11306209FBF06C08FB7F894E8812E2B28838FBF15
S1130630DF91CF9108951F93CF93DF93282F30E05C
S1130640F901E859FF4F8491F901E458FF4FD4911F
S1130650F901E057FF4FC491CC23C1F0162F81114B
S11306600E94B602EC2FF0E0EE0FFF1FE255FF4FA1
S1130670A591B4919FB7F894111104C08C91D095B1
S1130680D82302C0EC91DE2BDC939FBFDF91CF9186
S11306901F910895CF93DF93282F30E0F901E85993
S11306A0FF4F8491F901E458FF4FD491F901E057C9
S11306B0FF4FC491CC2391F081110E94B602EC2F1C
S11306C0F0E0EE0FFF1FEC55FF4FA591B491EC91B4
S11306D0ED2381E090E021F480E002C080E090E02E
S10F06E0DF91CF9108950895F894FFCFA6
S9030000FC
