:100000000C9461000C9473000C9473000C947300B6
:100010000C9475000C9473000C9473000C94730092
:100020000C9473000C9473000C9473000C94730084
:100030000C9473000C9473000C9473000C94730074
:100040000C94D1010C9473000C9473000C94730005
:100050000C9473000C9473000C9473000C94730054
:100060000C9473000C94730000000008000201005F
:100070000003040700000000000000000102040863
:100080001020408001020408102001020408102002
:10009000040404040404040402020202020203032E
:1000A00003030303000000002300260029000000D2
:1000B0000000250028002B0000000000240027007D
:1000C0002A0011241FBECFEFD8E0DEBFCDBF21E054
:1000D000A0E0B1E001C01D92AA30B207E1F70E9492
:1000E000C2010C9475030C9400001F920F920FB67E
:1000F0000F9211242F933F934F935F936F937F93AE
:100100008F939F93AF93BF93EF93FF9364EF71E04F
:1001100080E090E00E9440028EE00E944B03019735
:1001200081F4809100018F5F843018F48093000186
:1001300002C0109200018EE00E944B03892BD9F778
:100140002FC080E10E944B03019769F48091000168
:10015000815008F483E08093000180E10E944B030A
:10016000892BD9F71DC08FE00E944B03019751F4F2
:1001700061E08BE00E941C038FE00E944B03892BFF
:10018000D9F70EC081E10E944B03019751F460E062
:100190008BE00E941C0381E10E944B03892BD9F75D
:1001A0001BBAFF91EF91BF91AF919F918F917F917A
:1001B0006F915F914F913F912F910F900FBE0F90D4
:1001C0001F90189561E085E00E94E00261E086E002
:1001D0000E94E00261E083E00E94E00261E08BE0C7
:1001E0000E94E00260E08EE00E94E00260E08FE0AA
:1001F0000E94E00260E080E10E94E00260E081E1B4
:100200000E94E0021BBA82E0809368008FE0809336
:100210006C0060E085E00E941C0360E086E00E94C4
:100220001C0360E083E00E941C0360E08BE00C9400
:100230001C03809100018130A1F038F0823009F474
:1002400045C0833009F47DC0089561E083E00E94D9
:100250001C0361E085E00E941C0361E086E00C94D1
:100260001C0361E085E00E941C0364EF71E080E004
:1002700090E00E94400261E086E00E941C0364EF6F
:1002800071E080E090E00E94400261E083E00E9423
:100290001C0364EF71E080E090E00E94400260E0A7
:1002A00085E00E941C0364EF71E080E090E00E9412
:1002B000400260E086E00E941C0364EF71E080E091
:1002C00090E00E94400260E083E053C061E085E07E
:1002D0000E941C0368EC70E080E090E00E94400205
:1002E00061E086E00E941C0368EC70E080E090E032
:1002F0000E94400261E083E00E941C0368EC70E011
:1003000080E090E00E94400260E085E00E941C03D3
:1003100068EC70E080E090E00E94400260E086E0DF
:100320000E941C0368EC70E080E090E00E944002B4
:1003300060E083E00E941C0368EC70E080E090E0E5
:100340001EC061E083E00E941C0361E085E00E9422
:100350001C0361E086E00E941C0364EF71E080E012
:1003600090E00E94400260E085E00E941C0360E093
:1003700086E00E941C0364EF71E080E090E00C9442
:10038000400208950E947C020E94C1010E94E20086
:10039000C0E0D0E00E9419012097E1F30E94000024
:1003A000F9CF1F920F920FB60F9211242F933F9304
:1003B0008F939F93AF93BF9380910201909103011C
:1003C000A0910401B09105013091010123E0230FB8
:1003D0002D3720F40196A11DB11D05C026E8230F7D
:1003E0000296A11DB11D20930101809302019093FB
:1003F0000301A0930401B09305018091060190913F
:100400000701A0910801B09109010196A11DB11D3C
:100410008093060190930701A0930801B09309010E
:10042000BF91AF919F918F913F912F910F900FBEF0
:100430000F901F9018953FB7F89480910601909106
:100440000701A0910801B091090126B5A89B05C03C
:100450002F3F19F00196A11DB11D3FBFBA2FA92F43
:10046000982F8827820F911DA11DB11DBC01CD01C0
:1004700042E0660F771F881F991F4A95D1F70895AC
:100480008F929F92AF92BF92CF92DF92EF92FF92A4
:100490006B017C010E941B024B015C01C114D10461
:1004A000E104F10401F10E9474030E941B02DC01CB
:1004B000CB0188199909AA09BB09883E9340A10577
:1004C000B10560F321E0C21AD108E108F10888EE15
:1004D000880E83E0981EA11CB11CC114D104E10454
:1004E000F10419F7DBCFFF90EF90DF90CF90BF9032
:1004F000AF909F908F900895789484B5826084BD6A
:1005000084B5816084BD85B5826085BD85B5816017
:1005100085BDEEE6F0E0808181608083E1E8F0E077
:100520001082808182608083808181608083E0E8A6
:10053000F0E0808181608083E1EBF0E08081846085
:100540008083E0EBF0E0808181608083EAE7F0E087
:1005500080818460808380818260808380818160EB
:1005600080838081806880831092C10008958330E9
:1005700081F028F4813099F08230A1F0089587301D
:10058000A9F08830B9F08430D1F4809180008F7D5B
:1005900003C0809180008F7780938000089584B598
:1005A0008F7702C084B58F7D84BD08958091B0009F
:1005B0008F7703C08091B0008F7D8093B000089545
:1005C000CF93DF9390E0FC01E458FF4F2491FC01AE
:1005D000E057FF4F8491882361F190E0880F991FC5
:1005E000FC01E854FF4FC591D491FC01E255FF4F47
:1005F000A591B491611109C09FB7F89488812095A5
:1006000082238883EC912E230BC0623061F49FB764
:10061000F8948881322F309583238883EC912E2B98
:100620002C939FBF06C08FB7F894E8812E2B2883A8
:100630008FBFDF91CF9108951F93CF93DF93282F22
:1006400030E0F901E859FF4F8491F901E458FF4F78
:10065000D491F901E057FF4FC491CC23C1F0162F7C
:1006600081110E94B702EC2FF0E0EE0FFF1FE25560
:10067000FF4FA591B4919FB7F894111104C08C91CC
:10068000D095D82302C0EC91DE2BDC939FBFDF9185
:10069000CF911F910895CF93DF93282F30E0F90178
:1006A000E859FF4F8491F901E458FF4FD491F901C3
:1006B000E057FF4FC491CC2391F081110E94B70203
:1006C000EC2FF0E0EE0FFF1FEC55FF4FA591B4911A
:1006D000EC91ED2381E090E021F480E002C080E025
:0E06E00090E0DF91CF9108950895F894FFCF38
:00000001FF
